:020000040100F9
:100000000000012191A2020165A2020145A20201A4
:1000100065A2020165A2020165A2020165A20201B8
:1000200065A2020165A2020165A2020165A20201A8
:1000300065A2020165A2020165A2020165A2020198
:1000400065A2020165A2020165A2020165A2020188
:1000500065A20201ED9D020165A2020165A20201F5
:10006000B1B3020165A20201699B020165A202010E
:100070004DA0020165A2020165A2020165A2020172
:1000800065A20201999E02015D9D02019DA00201EF
:1000900065A2020165A20201A59E020165A20201FC
:1000A0005DA002016DA0020165A2020165A202012C
:1000B00065A2020165A2020100000000000000002C
:1000C0000000000000000000000000000000000030
:1000D0000000000000000000000000000000000020
:1000E0000000000000000000000000000000000010
:1000F0000000000000000000000000000000000000
:10010000002070472DE9F047AA4D94B0AA482AF084
:10011000F7FB284623F0F0FD302205F10C01022008
:100120002AF002FC302205F1320101202AF0FCFB0A
:10013000302205F1390106202AF0F6FB1022ADF835
:10014000102008228DF8122020220B23ADF8142055
:10015000802240F20D114FF004082B71EB8BADF8AB
:1001600018206A7B1C338DF81A208DF81E20ADF8FC
:1001700020302A7FEB7EADF81C10134495F8222026
:1001800004A9134495F82320052013448DF8223048
:100190008DF8168028F008FF80B228F0D3FF29F0F0
:1001A00073F829F0D7F900F055F928F0DBFF07467E
:1001B00028F0DEFF0646804828F058F932463946D6
:1001C000404603F0B7FB07EB0009A6EB000A044624
:1001D00052464946404602F019FF0444AAEB000289
:1001E00009EB0001404603F00FF800EB0408284635
:1001F00023F0AAFDAC7E4744A6EB080634B1314695
:10020000384623F0DFFE04460744361A31463846A6
:1002100023F093FE361A074481463146384623F0D0
:10022000A2FE361A0744314644448046384623F03D
:10023000BEFE361A074431464C448146384623F008
:10024000A4FE4444311A8046381823F0DBFE4C44A7
:100250004444044428F010F902F008FC00F02CFC9F
:1002600002F098FA01F062FA02F0AEFB01F02AF80F
:1002700001F048F801F008FC2AF068FF01F07AFF6D
:1002800002F008F901F0A2FC01F064FD03F02AFB82
:100290004A4828F0EDFF28F0CDFD23F047FE23F07B
:1002A000A7FE23F097FE23F057FE23F09AFE23F0DB
:1002B000AFFE23F0B4FE23F042FE23F09BFE23F0BA
:1002C000A3FE23F06BFE23F059FE23F04EFE23F035
:1002D000ADFE23F06EFE23F05AFE23F071FE23F0F4
:1002E00095FE374828F0C4FF23F034FD354828F048
:1002F000BFFFAA8CE98B28F0BFF923F075F823F033
:100300007FF923F02DF923F09FF823F089F923F0EA
:10031000FDF823F08BF823F063F923F003FA23F0C0
:1003200073F823F03DF923F09FF823F011F923F03F
:10033000E9F923F0D3F923F0C9F823F0A7F823F063
:10034000B5F823F0D3F823F0A9F91F4828F090FF5F
:1003500023F078F923F06AFB204628F0F3FE06220A
:1003600002A900202AF0E0FA02A823F061FE04218D
:100370000DEB01002AF09CFC02A826F087FD01216C
:100380004FF4003023F0F2FE04A823F091FC9DF816
:100390003D3004A823F03C038DF83D3023F07CFC75
:1003A0000A4828F081FF28F08BFF002014B0BDE838
:1003B000F08700BF3001002120010021558E02018D
:1003C000E13D0201A5860201C93C020101010001D3
:1003D000014B1878704700BF00000720014B1970CF
:1003E000704700BF00000720012070470122014B29
:1003F0005A607047002001412DF0C0BB70B5561EF9
:10040000B0B20D4628F0C8FE044698B13246691CC9
:100410002EF0D6FB2B78022B0ED0052B05D0012B0E
:1004200008D100212246084602E02246032100208E
:1004300028F08EF9002070BD22460121F7E7000068
:10044000C30703D5024B58682DF04EBA704700BF62
:10045000B001002138B5B4202EF0A2FB044618B13B
:10046000B42200212EF0D3FB064DB4202C602EF0D8
:1004700097FB044618B1B42200212EF0C8FB6C6033
:1004800038BD00BFB001002130B5264B87B004ACA9
:1004900093E80300002284E803002349072029F0A1
:1004A00021FC224829F03AFC2046214C2EF054F839
:1004B00020482EF033F822461F4920482DF0FAFF3D
:1004C000226893680BB102F10C0304201C4A10242B
:1004D0009060106201201B49536151601A49948158
:1004E0000D684968156091611849194D88610220AD
:1004F000D362D5619484CA6200228862154808627A
:10050000009215482DF0BEFD144B154A0293154B71
:10051000114901934FF0FF33134800932DF0A8FACF
:1005200007B030BDFCFB02014104000104FC0201E4
:100530006C01002100000021DCFB0201E6FB02014E
:100540004402002100FC0720B001002178020021B4
:1005500000F8072088FC0201B8010021F90300011E
:10056000EEFB0201FD03000170010021022907B525
:10057000184603F1FF3310D1042100F8011C0121BA
:1005800008480A4401910092D0E909122DF0E2F9DD
:1005900003B05DF804EB28F05BB801290CBF022121
:1005A0000521EAE7700100212AF09CB92DE9F0410C
:1005B0001D46846A07460E46904628F017F8637B6E
:1005C0000544022B0DD0032B0DD0012B00D1283573
:1005D000306C3C694319A34208D934640020BDE85B
:1005E000F0811835F4E705F5A875F1E77B68241A62
:1005F00063B14146986827F0FFFF844228BF044654
:10060000A54203D9336C23443364E7E7054B601BF1
:100610001B689C884FF47A735C43A04228BF204635
:10062000DDE700BFA84300211FB501238DF804308A
:10063000002301A8CDE902332AF0D2F805B05DF815
:1006400004FB1FB5002301A8CDE9013303932AF071
:10065000C7F805B05DF804FB2DE9F8430446884669
:10066000866A2AF003FC05460146A06806F1900759
:1006700027F0C2FF78B9A368DFF88890C9F8743012
:1006800027F0B4FF2844A060D9F87410284627F05A
:10069000B3FFC6F8D000D6F89C300BB1204698477F
:1006A000394600232046A268FFF780FF074618B9A5
:1006B000BDE8F84327F06EBF124DA36840466B6754
:1006C0002AF002F8104BC5F88470AB670F4B05F1A8
:1006D0007800EB67A368C5F88030A3602AF078F84B
:1006E000002385F87030D6F8943043B1FFF79CFFB3
:1006F000D6F890002721BDE8F8432AF0C1B8FFF7EB
:10070000A0FFF5E7CC050021C9090001AD070001F4
:100710002DE9F84380460C4627F046FF064618B1FF
:1007200001263046BDE8F8832AF0A0FB1D4D814626
:10073000696F27F061FF236C03442364C5F874904C
:1007400027F054FF4A46034621464046FFF72EFF56
:1007500007460028E4D0636A53B102464946404642
:10076000984728B10122D8F8283083F8C020D8E76C
:10077000D5F8748027F03AFF4044C5E920070A48BD
:100780002AF026F8002385F87030636833B1FFF74C
:100790004BFF272120682AF073F8C2E7FFF751FFCB
:1007A000F7E700BFCC050021440600212DE9F04FFA
:1007B00087B09A469DF840300391029393460746CE
:1007C0002AF054FBDFF8F491C9F8000027F0DCFEB2
:1007D000DDE90231846A8046D4F8BC50ADB194F8AA
:1007E000C020012A11D1CDE900A30A465B46394653
:1007F000D4F8B000A847012804D10023C4F8B030D1
:1008000084F8C03007B0BDE8F08F6D4A6D4D92F8A6
:100810007060701C82F8700076B1022E00F0868045
:10082000AC8C2AF023FBD9F80030C01A844240F285
:10083000B580A88CA884E5E707B3FB1E012B40F226
:10084000B680042F68D06FD833460126032F5DD0C1
:1008500032461E46EB690133EB613346164643B11F
:1008600017F0FB0F46D0404604F19001FFF750FF10
:100870000646002ED4D027F09DFED1E784F8C310A1
:1008800084F8C4303A46C4E932BAD4F8900004F18E
:10089000D80304F1780102F0EBF9002834D0404687
:1008A000D4F8A030D4F89010984700287DD06E8CF2
:1008B0002AF0DCFAD9F80030C01A86421DD9688CBB
:1008C00094F8C1306884ADF81030D4F894300593B2
:1008D000FFF7AAFE012104A829F0B4FFD4F8A43040
:1008E0001BB14046D4F8901098472B6801332B6019
:1008F000002F95D029F0F4FFB5E72AF0B7FAD9F820
:100900000030C01A80B2DBE70127EEE7AA680132A7
:10091000AA60002BA7D1ACE7334601266A680132F2
:100920006A60002BE6D1A4E7012293E76FB1FB1EBA
:10093000012B1ED9042F4FF000034FF0010629D0E0
:1009400022D9EA690132EA6189E73A46D4F8980087
:1009500004F1D80304F1780102F08AF928B1404685
:10096000D4F8AC30D4F8981098472B6901332B6138
:10097000C0E7D4F8AC30002140469847042F4FF030
:1009800001034FF0000605D0032FDAD1AA69013226
:10099000AA61BEE76A6901326A61C2E72AF066FAB3
:1009A000D9F80030C01A80B244E7012796E7042F37
:1009B0004FF001037FF44AAFB0E700BF50050021BC
:1009C000CC050021A80200212DE9F84381462AF038
:1009D0004DFA364E306027F0D7FD856A0746D5F8C8
:1009E000B83083B195F8C020012A0CD14946D5F81A
:1009F000B0009847012804D10023C5F8B03085F82D
:100A0000C030BDE8F8832A4B2A4C93F8708008F177
:100A10000102B8F1010F83F870202CD1B9F1000F59
:100A20003FD13846D5F8A830D5F89410984790B102
:100A3000B4F820802AF01AFA3368C01A804524D905
:100A4000238C2384FFF7FDFD2721D5F8980029F09A
:100A50003DFF4FF00008E3680133E360B8F1000F99
:100A600009D029F03DFF384605F19001FFF750FE0F
:100A700008B127F09FFDE58C2AF0F8F93368C01A19
:100A8000854208D9E08CE084BBE72AF0EFF93368AF
:100A9000C31A9BB2D5E72AF0E9F93368C01A80B2CD
:100AA000F1E7E3690133E361E3E700BF50050021AB
:100AB000CC050021A802002108B50220054A0649FC
:100AC00002F00EF8BDE808402822002103482EF06D
:100AD0009EB800BFA905000159060001A802002127
:100AE00030B50446044D0FCD0FC40FCD0FC495E8AB
:100AF000030084E8030030BDA80200211FB50023D5
:100B000001A8CDE90133039329F06AFE05B05DF831
:100B100004FB1FB501238DF80430002301A8CDE9A3
:100B2000023329F05DFE05B05DF804FB70B50546A3
:100B3000866A084629F0C8FD114C124B04F1780072
:100B4000A367114BE367D6F8AC30C4F88430AB68C8
:100B5000C4F88030AB6029F03BFE002384F870308D
:100B6000D6F8903043B1FFF7D4FFBDE8704040F2B3
:100B70000111064829F084BEFFF7C0FFF5E700BF6A
:100B8000CC050021A90E00016D120001D002002148
:100B900070B50546866A084629F096FD0D4C0E4B49
:100BA00004F17800E367D6F89830C4F88430AB6875
:100BB000C4F88030AB6029F00BFE002384F870305D
:100BC000FFF79CFFBDE8704040F20111034829F097
:100BD00057BE00BFCC050021E10B00010804002135
:100BE0002DE9F74F0E469DF830109A46019200917C
:100BF00005462AF03BF9DFF83082DFF83092C8F87A
:100C0000000027F0C1FCDDE9001299F870300746BA
:100C1000D0F828B0864C83B1032B00F08680258C59
:100C20002AF024F9D8F80030C01A854240F2EE804C
:100C3000208C208403B0BDE8F08FDDB1EA1E012ACC
:100C400040F2EB80042D64D06DD81A460123032DA9
:100C500059D019461346A2690132A2611A460B46C1
:100C6000002A5DD015F0FB0F01D129F039FE27F0E5
:100C7000A1FCD4E703238BF89D600126CBE9282A49
:100C800089F870302A468BF89E10DBF8903069495D
:100C90008BF8A8609847054678B3584629F014FDAC
:100CA000554409F17800C9F8805029F091FDA58BD1
:100CB0002AF0DCF8D8F80030C01A854216D9A08B8B
:100CC000A083FFF71BFF40F201115A4829F0D8FD1D
:100CD0003846DBF8943058499847B0FA80F67609E0
:100CE000236801332360002E99D0BEE72AF0BEF8B6
:100CF000D8F80030C01A80B2E2E73846DBF894300A
:100D00004C499847ECE7A1680131A160002AAED1B7
:100D100006E01A460123616801316160002AA4D10E
:100D2000002BA4D17BE7012195E7DBF89030ADB132
:100D3000EA1E012A52D92A4600219847DBF894304E
:100D4000002138469847042D4FF000024FF0010370
:100D500058D051D9A1690131A16181E72A468BF8A8
:100D6000A8508BF89E108BF89D6032499847054635
:100D700068B3584629F0A8FC554409F17800C9F831
:100D8000805029F025FDA58B2AF070F8D8F80030A6
:100D9000C01A854214D9A08BA083FFF7AFFE40F2A2
:100DA0000111244829F06CFD3846DBF894302249C3
:100DB0009847B0FA80F67609E3680133E36092E77A
:100DC0002AF054F8D8F80030C01A80B2E4E7384668
:100DD000DBF89430174998470126EDE72A460021B1
:100DE0009847DBF89430002138469847042D4FF09F
:100DF00001024FF0000305D0032DABD16169013131
:100E0000616183E721690131216187E72AF02EF8CA
:100E1000D8F80030C01A80B20BE7042D4FF0010261
:100E20007FF415AF77E700BF50050021CC05002106
:100E30000C05002108040021D002002170B5164BDA
:100E400093F870506A1C012D83F8702015D1134C53
:100E5000E1B9A68D2AF00AF8114D2B68C01A864216
:100E60000ED9A08DA085FFF749FE40F201110D4873
:100E700029F02CFDE3680133E3600025284670BDAE
:100E800029F0F4FF2B68C01A80B2EBE7A36A0133A4
:100E9000A36227F08FFBF1E7CC050021D4030021EA
:100EA00050050021D002002170B5044629F0DEFF74
:100EB0000B4D286027F068FB21460A4CFFF7BEFF68
:100EC000668E29F0D3FF2B68C01A864202D9608E45
:100ED000608670BD29F0CAFF2B68C01A80B2F7E7A0
:100EE00050050021D40300212DE9F74FDFF87C9253
:100EF0000E4699F870408046022CDDF830A09DF82F
:100F00003410856A00F0C480032C00F03981002C75
:100F100040F09E81964F06B3F31E012B40F29A815A
:100F2000042E00F0AA8000F2B18023460124032E93
:100F300000F0968022461C46BB6A0133BB62234602
:100F40001446002B00F0928016F0FB0F01D129F01F
:100F5000C7FC27F02FFB01248BE0C5E92D3A85F86B
:100F6000B210D5F89430834985F8B12098470446EB
:100F7000002862D0D5F89030002B5ED00123B7F85E
:100F80002EB089F8703029F071FF7B4E3368C01A9B
:100F900083454CD9FB8DFB8595F8A830ADF8003022
:100FA000D5F890300193FFF7B4FD0121684629F090
:100FB00049FCD5F8983013B140466E499847002C4B
:100FC0004CD1D5F8A030002B40D040466949984715
:100FD000044600283AD0032389F8703029F080FCB9
:100FE000284629F071FB54446448C9F8804029F030
:100FF000EFFBBE8D29F03AFF5F4C2368C01A864292
:101000001ED9B88DB885FFF779FD40F20111594816
:1010100029F036FC4046D5F8A43056499847B0FA36
:1010200080F464093B6801333B6014B38FE729F017
:101030001DFF3368C31A9BB2ADE729F051FCB8E736
:1010400029F014FF2368C01A80B2DBE7D5F8A4307A
:1010500013B14046474998470124E3E70024E1E7FC
:10106000BA680132BA60002B7FF473AF002C7FF4B2
:1010700070AF204603B0BDE8F08F234601247A68A4
:1010800001327A60002B7FF462AFEFE7012253E771
:101090000324374F89F870406EB1F31E012B51D9EC
:1010A000042E4FF000034FF001045BD054D9BA6A0C
:1010B0000132BA6245E7C5E92D3A85F8B210D5F894
:1010C0009C302C4985F8B1209847D5F8A0308BB3D7
:1010D000404628499847044660B3284629F0F4FA68
:1010E000544409F17800C9F8804029F071FBBE8DA5
:1010F00029F0BCFE204C2368C01A864214D9B88D52
:10110000B885FFF7FBFC40F201111A4829F0B8FB43
:101110004046D5F8A43017499847B0FA80F46409DE
:101120003B6901333B6180E729F0A0FE2368C01AC8
:1011300080B2E5E7D5F8A43013B140460D49984791
:101140000124EDE7D5F89C3000219847042E4FF09C
:1011500001034FF0000405D0032EA8D1BA69013273
:10116000BA6180E77A6901327A618BE7CC050021A8
:10117000D4030021D00200215005002144060021A3
:10118000D5F8A030364FC6B1F21E012A4ED9002143
:101190009847D5F8A43013B1002140469847042E53
:1011A0004FF000034FF001044ED080D8032E7FF49F
:1011B0007EAF7A6A01327A6255E72A499847044637
:1011C00060B3284629F080FA544409F17800C9F840
:1011D000804029F0FDFABE8D29F048FE224C23689C
:1011E000C01A864214D9B88DB885FFF787FC40F243
:1011F00001111C4829F044FB4046D5F8A430194998
:101200009847B0FA80F46409FB690133FB610CE78D
:1012100029F02CFE2368C01A80B2E5E7D5F8A43087
:1012200013B140460F4998470124EDE70021984744
:10123000D5F8A43013B1002140469847042E4FF052
:1012400001034FF00004B1D13A6A01323A6219E762
:1012500000240EE7042E4FF001037FF468AE0EE782
:10126000D4030021D0020021500500212DE9F341D3
:101270000E4617469846044629F0F8FD0F4D2860A3
:1012800027F082F99DF8203021460D4C3246CDE9F9
:1012900000833B46FFF728FE268E29F0E7FD2B68EA
:1012A000C01A864204D9208E208602B0BDE8F081A3
:1012B00029F0DCFD2B68C01A80B2F5E7500500214B
:1012C000D403002108B500220620054901F008FCDE
:1012D000BDE808403422002102482DF098BC00BF30
:1012E0002D0B0001D403002130B50446044D0FCD71
:1012F0000FC40FCD0FC40FCD0FC42B68236030BDBA
:10130000D403002108B500220920054901F0E8FBBB
:10131000BDE808402422002102482DF078BC00BF1F
:10132000910B00010C05002130B50446034D0FCD93
:101330000FC40FCD0FC42B68236030BD0C050021F6
:1013400070B50446866A084629F0BEF90F4DD6F8F6
:10135000AC3005F17800C5F88430A368C5F880305A
:10136000A36029F035FA002385F87030D6F8903064
:1013700043B1FFF7CEFBBDE8704040F201110448D5
:1013800029F07EBAFFF7BAFBF5E700BFCC050021D4
:10139000D002002129F0A6BA1FB5002301A8CDE98B
:1013A0000133039329F01CFA05B05DF804FB00003B
:1013B0002DE9F04F85B080460E469346994627F0BA
:1013C000F3F8074668B93E4CD8F828A094F8723074
:1013D00094F87150032B06D118B184F8723084F858
:1013E0007150012754E0022D92BF2A46033DEAB214
:1013F00002F125018AF80110F17E551C41FA02F232
:101400000133D2074FF00100DBB2EDB2E2D584F830
:10141000723084F87150B9F1000F04D11BF0FB0F4A
:1014200001D129F05DFA504629F04EF9B9F1000FCB
:1014300004D0D8F80830C4F8803009E073685BB392
:1014400029F014FD054627F0D1F82844C4F880009F
:10145000002384F87030F3681BB14046D4F8801044
:101460009847184829F0B4F9736833B301238DF80D
:101470000430002301A8CDE9023329F0B1F9337E0D
:101480000121ADF80430336801A8029329F0B0F9C6
:10149000384605B0BDE8F08F327E9AF80E109AF803
:1014A0000C0026F010F8054627F0A0F8284426F096
:1014B00071F8D4F880300344BDE7FFF76DFFDEE735
:1014C000CC050021440600210E4B0F4A10B5816A5D
:1014D0009A670E4A91F8AA40DA670422C3F884207A
:1014E000002283F8714083F8702083F872209031D5
:1014F0000123FFF75DFF18B1BDE8104027F04AB89F
:1015000010BD00BFCC0500215116000111150001CE
:101510002DE9F3479946054629F0A8FCDFF8248118
:10152000494CC8F8000027F02FF8484A866A92F81C
:1015300070300746591C012B82F8701068D106F1F3
:10154000900A002D4BD1C6F8AC902A46D6F89400EC
:1015500006F1B00306F1780101F08AFB814668B319
:101560003846D6F8A030D6F89410984730B3B4F87F
:101570001A9029F07BFCD8F80030C01A814516D9A2
:10158000608B6083FFF708FF96F8A9300121ADF862
:101590000030D6F898306846019329F053F9D6F810
:1015A000A430ABB13846D6F89410984710E029F033
:1015B0005DFCD8F80030C01A80B2E2E70023514643
:1015C0001A463846FFF7F4FE0546B9F1000FE6D19A
:1015D000636801336360DDB129F082F910E0002314
:1015E0002A465146FFF7E4FE042D1ED001D8032DF4
:1015F00009D063690133636150B115F0FB0FEBD083
:1016000026F0D8FF04E0E3680133E3600028F7D157
:10161000A58B29F02BFCD8F80030C01A85420AD9D6
:10162000A08BA08302B0BDE8F087A3680133A3605C
:101630000028D1D1ECE729F019FCD8F80030C01A05
:1016400080B2EEE75005002130050021CC050021D5
:101650002DE9FF41074629F009FC314E314C30603D
:1016600026F092FF2FB163690133636126F0A2FF78
:101670000CE02D4BD0F8288093F8705008F19001C1
:101680006A1C83F870206DB1022D39D0E58B29F0EA
:10169000EDFB3368C01A85423BD9E08BE08304B090
:1016A000BDE8F081D8F8943023B3278B29F0DEFB16
:1016B0003368C01A874217D9208B01238DF8043074
:1016C0000023208301A8CDE9023329F089F82421E1
:1016D000D8F8940029F0FAF8236801332360002D2C
:1016E000D4D029F0FDF8C1E729F0C0FB3368C01A57
:1016F00080B2E2E72B462A46FFF75AFE0546EBE7A3
:101700003B463A46FFF754FE236905460133236101
:10171000E5E729F0ABFB3368C01A80B2BEE700BF33
:101720005005002130050021CC05002108B503201B
:10173000054A064901F0D4F9BDE8084020220021FD
:1017400003482DF064BA00BF95130001C9140001CD
:101750003005002130B50446034D0FCD0FC495E888
:101760000F0084E80F0030BD300500211FB50023B5
:1017700001A8CDE90133039329F032F805B05DF8F3
:1017800004FB00002DE9F0479A46054629F06EFB60
:10179000354F364C386026F0F7FE354B866A93F8A5
:1017A0007090804609F10102B9F1010F83F87020B1
:1017B00045D185BB9DF82030D6F8A01086F8D130F1
:1017C000C6F8D4A0D6F8C430984788B3B4F81E90B1
:1017D00029F04CFB3B68C01A814516D9E38BE383A3
:1017E000FFF7C4FF022106F1A40029F02BF8D6F878
:1017F000C8301BB14046D6F8A01098476368013343
:101800006360E5B129F06CF817E029F02FFB3B6825
:10181000C31A9BB2E3E7042D1CD001D8032D09D0D5
:10182000A36915F0FB0F03F10103A36105D1E9E7FB
:101830004D46E3E7E3680133E36026F0BBFE258C09
:1018400029F014FB3B68C01A854207D9208C2084FC
:10185000BDE8F087A3680133A360D3E729F006FB56
:101860003B68C01A80B2F2E7500500215405002100
:10187000CC050021F8B5CB6B06460C460BB9012010
:10188000F8BD0121984705460028F8D0B06A28F035
:101890001BFF1148114ED0F8803078302B44104D8A
:1018A000836028F095FFAF8B29F0E0FA3368C01A07
:1018B00087420AD9A88BA883FFF758FF04F12400B8
:1018C000022128F095FF0020DAE729F0CFFA3368EB
:1018D000C01A80B2EFE700BFCC05002150050021FF
:1018E000540500212DE9FF47054629F0BFFA3F4F77
:1018F0003F4C386026F048FE81462DB1A369013384
:10190000A36126F057FE1AE0DFF8E880866A98F8AF
:10191000705006F1900A022D3FD0032D55D075B9B5
:10192000D6F8A030BBB90323514688F87030FFF7D2
:10193000A1FF0546236801332360002D53D1658C38
:1019400029F094FA3B68C01A854246D9608C6084BD
:1019500004B0BDE8F087012388F87030B4F81C802B
:1019600029F084FA3B68C01A804510D9A08B012366
:101970008DF804300023A08301A8CDE9023328F0BC
:101980002FFF2421D6F8A00028F0A0FFD2E729F0ED
:101990006DFA3B68C01A80B2E9E7032388F870301B
:1019A0000E2296F8D110707BD6F8D45025F08BFD1E
:1019B0009635054451464846C8F88050FFF75AFF0F
:1019C0002369054601332361B7E75146FFF752FF0C
:1019D0006369054601336361AFE729F047FA3B6865
:1019E000C01A80B2B3E728F07BFF8AE750050021D8
:1019F00054050021CC050021F0B51E4B1E4C866A13
:101A0000A3671E4B85B0E3670423C4F8843000232A
:101A10000F460546A4F8703026F0C6FD014630BBDF
:101A2000D6F8CC300BB128469847384628F04CFE03
:101A3000AB6800251248C4F8803084F8705028F054
:101A4000C7FED6F8A0307BB1012301A8CDE902552D
:101A50008DF8043028F0C4FE022106F1900005B094
:101A6000BDE8F04028F0C4BEFFF780FEF4E705B003
:101A7000F0BD00BFE5180001CC050021851700016D
:101A800044060021FFF7B8BF08B500220720074928
:101A900001F026F800220820054901F021F8BDE8F0
:101AA00008402422002103482DF0B1B8F9190001A3
:101AB000851A00015405002130B50446034D0FCDB1
:101AC0000FC40FCD0FC42B68236030BD5405002117
:101AD00028F008BF2DE9F0410F469846054629F049
:101AE000C5F9224C224E94F870303060013384F8EE
:101AF000703026F049FD0023826AD4F88C10C2F8B9
:101B00009C8082F8A070C4F88C30D2F898302A46B5
:101B1000984726F049FD18B128F0E2FE26F04AFD6C
:101B2000032D144C10D0042D12D0ADB9236801330D
:101B30002360258B29F09AF93368C01A85420FD9A2
:101B4000208B2083BDE8F081A3680133A360F0E718
:101B5000636801336360ECE7236901332361E8E7DD
:101B600029F084F93368C01A80B2EAE7CC05002175
:101B7000500500217805002170B50446866A0846A4
:101B800028F0A2FD0F4D104B05F17800EB67A3681C
:101B9000C5F88030D6F89030C5F8843028F018FEAB
:101BA0000023204685F87030D6F89430984726F008
:101BB000FBFC30B126F0E8FC18B1BDE8704026F01F
:101BC000F9BC70BDCC050021D51A000108B50C2068
:101BD000054A064900F084FFBDE808401C220021A8
:101BE00003482DF014B800BFD11A0001791B000181
:101BF000780500212DE9FF411A4E0D46A6F8881000
:101C00000221C6F88C00044601A8CDE902239DF804
:101C100028708DF8041028F0E3FD96F8703003B1B9
:101C200037B12946204604B0BDE8F04128F028BE6F
:101C30000D4E0E4FB6F8148029F018F93B68C01A03
:101C4000804508D9B38A29462046B38204B0BDE84E
:101C5000F04128F03BBE29F009F93B68C31A9BB25A
:101C6000F1E700BFCC0500217805002150050021D7
:101C700070B50C460546074E28F032FE2046C6F8E1
:101C8000805028F021FD06F17800BDE8704028F072
:101C90009FBD00BFCC05002128F024BE70B50446CE
:101CA00029F0E4F8144A154D92F870302860013399
:101CB00082F8703026F068FC836A2146104CD3F815
:101CC00094309847E3680133E36026F06DFC18B167
:101CD00028F006FE26F06EFC668B29F0C7F82B680C
:101CE000C01A864202D9608B608370BD29F0BEF8AD
:101CF0002B68C01A80B2F7E7CC05002150050021FF
:101D00007805002170B50446866A084628F0DCFC98
:101D10000E4D0F4B05F17800AB67A368C5F8803016
:101D2000A36028F055FD0023204685F87030D6F8D2
:101D30009030984726F038FC30B126F025FC18B1D9
:101D4000BDE8704026F036BC70BD00BFCC05002158
:101D50009D1C000108B50D20054A064900F0C0FE93
:101D6000BDE808401C22002103482CF050BF00BFF2
:101D7000991C0001051D0001780500212DE9FF4196
:101D800004460D4693B1022102928DF8041001A879
:101D9000039328F025FD134B93F870304BB9294677
:101DA000204604B0BDE8F04128F022BDCDE9013362
:101DB000EDE70D4E0D4FB6F8168029F057F83B6849
:101DC000C01A804508D9F38A29462046F38204B018
:101DD000BDE8F04128F036BD29F048F83B68C31A49
:101DE0009BB2F1E7CC0500217805002150050021C8
:101DF00030B50446034D0FCD0FC495E8070084E8C5
:101E0000070030BD780500211FB501238DF804308F
:101E1000002301A8CDE9023328F0E2FC05B05DF80B
:101E200004FB00002DE9F04104460D4626F0ACFB12
:101E3000836A1B780A2B0BD1124B93F870303BB995
:101E4000FFF7E2FF29462046BDE8F04128F0D0BC6C
:101E50000D4E0E4FB6F8168029F008F83B68C01AF0
:101E6000804509D9F38AF382FFF7CEFF2946204641
:101E7000BDE8F04128F0E6BC28F0F8FF3B68C31A43
:101E80009BB2F0E7CC05002194050021500500210C
:101E900070B50C4E04460D46C6F88C00A6F88810A6
:101EA00026F072FB836A1B780B2B0AD196F87030F0
:101EB0003BB9FFF7A9FF29462046BDE8704028F04E
:101EC000DFBC70BDCC05002130B50446034D0FCDFD
:101ED0000FC495E8070084E8070030BD9405002191
:101EE00070B50D46044628F0FDFC094BD3F88C1064
:101EF00039B100222046C3F88C200222D5F8AC303C
:101F000098472046D5F8A430BDE87040184700BF78
:101F1000CC0500212DE9F04104460D46876A26F0E4
:101F200043FB0646D8B9284628F0CEFB0D4D0E4B94
:101F300005F17800AB670D4BEB67A368C5F88030FF
:101F4000A3600423C5F8843028F042FCD7F8983009
:101F500085F870601BB12046BDE8F0411847BDE828
:101F6000F08100BFCC050021711F00014520000158
:101F70002DE9F04385B0054628F078FF2E4F2F4E0F
:101F8000386026F001FBD0F828902946D9F8A8300F
:101F900080469847D6F88C10294C00293AD055BB7A
:101FA000A58A28F063FF3B68C01A85421DD9A08A24
:101FB0000023A08201A8CDE90133039328F010FC8F
:101FC000B6F88810D6F88C0028F080FCE36801335E
:101FD000E360658B28F04AFF3B68C01A854213D93D
:101FE000608B608305B0BDE8F08328F03FFF3B685D
:101FF000C01A80B2DCE700230222C6F88C304046CB
:10200000D9F8AC30984708E028F030FF3B68C01A98
:1020100080B2E6E70DB928F063FC96F8703023B97A
:1020200026F0C8FA012386F87030002DCED023693F
:1020300001332361CDE700BF50050021CC0500210D
:10204000940500212DE9F3470F46054628F00EFFC1
:10205000DFF81481C8F8000026F096FA0023866A9B
:102060009DF8282086F8B070404F8DF80730D7F8DB
:102070008C1086F8B120C7F88C302A46D6F8AC30E0
:102080000446984726F090FA8146002837D04FF052
:10209000010926F089FA40EA0900C0B280B1062D94
:1020A00006D80123AB4013F0510F01D028F018FCE3
:1020B00097F8703023B926F07DFA012387F8703045
:1020C0009DF8073023B929462046D6F8A030984716
:1020D000032D274C35D0042D37D0002D39D123685E
:1020E00001332360258B28F0C1FED8F80030C01AD8
:1020F000854232D9208B208302B0BDE8F08720468C
:10210000D6F890300DF10701984782460028BED0DE
:1021100028F0E6FBD6F894300DF1070120469847E9
:10212000A06A28F0D1FAD7F880005044C7F88000A0
:1021300007F1780028F04CFB2046D6F89C309847F1
:10214000A7E7A3680133A360CCE76368013363604A
:10215000C8E7236901332361C4E728F087FED8F874
:102160000030C01A80B2C6E750050021CC0500211E
:102170009405002108B50A20054A064900F0B0FC84
:10218000BDE808401C22002103482CF040BD00BFE0
:10219000E11E0001151F00019405002170B50D46D8
:1021A000044628F09FFB094BD3F88C1039B100226C
:1021B0002046C3F88C200222D5F8AC309847204640
:1021C000D5F8A430BDE87040184700BFCC05002109
:1021D00001232DE9F041876A054687F8B03083680E
:1021E0000846C7F8B8300E4C0E4628F06DFA0D4B75
:1021F00004F17800A3670C4BE367D7F8B830C4F854
:102200008030D7F8C030C4F8843028F0E1FA0023D9
:10221000284684F87030D6F89830BDE8F041184769
:10222000CC050021A12300018D2200012DE9F04100
:1022300006460C46904626F0B7F9074618B1012726
:102240003846BDE8F0814146304623689847054648
:102250000028F4D028F044FB414663683046984794
:10226000B06A28F031FAA36A07482B44A362B3602E
:10227000C0F88030236B7830C36028F0A9FA30466C
:10228000E3689847DCE700BFCC0500212DE9F74360
:102290001F468846054628F0E9FD3E4E306026F090
:1022A00073F99DF82830846A15F0FB0F84F8BD306F
:1022B00094F8B03084F8BC8018BF8768012B08BF41
:1022C00000234FF0000808BFC4F8B470C4F8B87019
:1022D000314F08BF84F8B030D7F88C10D4F8AC3048
:1022E0002A46C7F88C808146984705F0FD03012BEC
:1022F0008DF807800FD148460DF1070204F19001D7
:10230000FFF794FF9DF80730804623B929464846D9
:10231000D4F8A030984726F047F940EA0800C0B248
:1023200080B1062D06D80123AB4013F0510F01D028
:1023300028F0D6FA97F8703023B926F03BF901233C
:1023400087F87030032D154C11D0042D13D0B5B97A
:10235000236801332360258B28F088FD3368C01A79
:10236000854210D9208B208303B0BDE8F083A36899
:102370000133A360EFE7636801336360EBE7236930
:1023800001332361E7E728F071FD3368C01A80B29A
:10239000E9E700BF50050021CC050021940500218C
:1023A0002DE9F743054628F061FD374F4FF000094E
:1023B000386026F0E9F80446866A2946D6F8A8303F
:1023C000984720460DF1070206F190018DF807901D
:1023D000FFF72CFF804655BB26F0E6F840EA0800E0
:1023E000C0B258B128F07CFA284B93F870302BB962
:1023F00026F0E0F80122254B83F870209DF8073085
:1024000023B929462046D6F8A0309847204C8DBBEA
:10241000E3680133E360658B28F028FD3B68C01A50
:1024200085422BD9608B608303B0BDE8F083012D1A
:1024300012D10028E2D0DFF85480D8F88C1031B1E6
:1024400002222046D6F8AC30C8F88C90984728F085
:1024500047FA98F87030CAE7DFF83080D8F88C1067
:102460000029F6D002222046D6F8AC30C8F88C906D
:102470009847EEE7236901332361CCE728F0F6FCA7
:102480003B68C01A80B2CEE750050021CC05002180
:102490009405002108B50B20054A064900F020FBF1
:1024A000BDE808401C22002103482CF0B0BB00BF4F
:1024B0009D210001D1210001940500211FB50123B8
:1024C0008DF80430002301A8CDE9023328F088F903
:1024D00005B05DF804FB00002DE9F04104460D460F
:1024E00026F052F8836A1B78042B0BD1124B93F819
:1024F00070303BB9FFF7E2FF29462046BDE8F041C6
:1025000028F076B90D4E0E4FB6F8168028F0AEFCC6
:102510003B68C01A804509D9F38AF382FFF7CEFFE2
:1025200029462046BDE8F04128F08CB928F09EFCF1
:102530003B68C31A9BB2F0E7CC050021B00500212F
:102540005005002170B50C4E04460D46C6F88C00AF
:10255000A6F8881026F018F8836A1B78052B0AD194
:1025600096F870303BB9FFF7A9FF29462046BDE831
:10257000704028F085B970BDCC05002130B5044607
:10258000034D0FCD0FC495E8070084E8070030BD68
:10259000B005002170B50D46044628F0A3F9094B9B
:1025A000D3F88C1039B100222046C3F88C200222C7
:1025B000D5F89C3098472046D5F89430BDE8704057
:1025C000184700BFCC05002170B5054608460E4CE3
:1025D0000E4628F079F80D4B04F17800A3670C4BF8
:1025E000E367AB68C4F88030AB600423C4F8843080
:1025F00028F0EEF80023284684F87030D6F89030A2
:10260000BDE87040184700BFCC050021C926000175
:102610001526000170B50C46054628F027FC274E0C
:10262000306025F0B1FF9DF81030826A82F8A13049
:10263000234B82F8A04093F8701011B9012183F860
:1026400070100024D3F88C10C3F88C40D2F89C3062
:102650002A46984725F0A8FF50B1062D06D8012339
:10266000AB4013F0510F01D028F03AF925F0A2FF4A
:10267000032D144C0FD0042D11D0A5B923680133BC
:102680002360258B28F0F2FB3368C01A85420ED9EF
:10269000208B208370BDA3680133A360F1E76368DA
:1026A00001336360EDE7236901332361E9E728F033
:1026B000DDFB3368C01A80B2EBE700BF5005002194
:1026C000CC050021B00500212DE9F04385B0054679
:1026D00028F0CCFB2C4EDFF8B480306025F054FF9E
:1026E000D0F828902946D9F8983007469847D8F866
:1026F0008C10274C00293CD065BBA58A28F0B6FB7E
:102700003368C01A85421FD9A08A01238DF804308E
:102710000023A08201A8CDE9023328F061F8B8F8BF
:102720008810D8F88C0028F0D1F8E3680133E36012
:10273000658B28F09BFB3368C01A854213D9608BE8
:10274000608305B0BDE8F08328F090FB3368C01AC1
:1027500080B2DAE700230222C8F88C303846D9F874
:102760009C30984708E028F081FB3368C01A80B29B
:10277000E6E70DB928F0B4F825F01CFF002DD4D001
:10278000236901332361D3E750050021CC050021E3
:10279000B005002108B50420054A064900F0A0F95B
:1027A000BDE808401C22002103482CF030BA00BFCD
:1027B00095250001C9250001B005002170B50D4621
:1027C000044628F08FF8094BD3F88C1039B1002259
:1027D0002046C3F88C200222D5F8A0309847204626
:1027E000D5F89830BDE87040184700BFCC050021EF
:1027F0002DE9F0410446876A08460E4D0E4627F043
:1028000063FF0D4B05F17800AB670C4BEB67A368DA
:10281000C5F88030A360D7F89030C5F8843027F031
:10282000D7FF0023204685F87030D6F89430BDE8F5
:10283000F0411847CC050021F9280001412800018A
:10284000F8B50C461F46054628F010FB274E3060B1
:1028500025F09AFE826A9DF8183082F8A840244C30
:1028600082F8A93094F8703023B90123C2F8A4701B
:1028700084F870300023D4F88C10C4F88C30D2F86F
:10288000A0302A46984725F08FFE50B1062D06D875
:102890000123AB4013F0510F01D028F021F825F0AF
:1028A00089FE032D134C0FD0042D11D0A5B9236838
:1028B00001332360258B28F0D9FA3368C01A85428A
:1028C0000ED9208B2083F8BDA3680133A360F1E704
:1028D000636801336360EDE7236901332361E9E74E
:1028E00028F0C4FA3368C01A80B2EBE75005002123
:1028F000CC050021B00500212DE9F04385B08046CC
:1029000028F0B4FA2D4D2E4E286025F03DFED0F86B
:1029100028904146D9F89C3007462A4C9847B8F190
:10292000000F29D1D6F88C300BB3A78A28F09EFA75
:102930002B68C01A874214D9A08A01238DF804306D
:102940000023A08201A8CDE9023327F049FFB6F8A1
:102950008810D6F88C0027F0B9FFE3680133E360F4
:102960001AE028F083FA2B68C01A80B2E5E727F056
:10297000B7FF25F01FFEF0E7D6F88C1039B1002321
:102980000222C6F88C303846D9F8A030984725F096
:1029900011FE236901332361668B28F067FA2B68E7
:1029A000C01A864204D9608B608305B0BDE8F0830D
:1029B00028F05CFA2B68C01A80B2F5E750050021B8
:1029C000CC050021B005002108B50520054A0649BF
:1029D00000F086F8BDE808401C22002103482CF0D6
:1029E00016B900BFBD270001F1270001B005002185
:1029F000816A034B0A7853F8323003B118477047A5
:102A0000CC050021816A044B0A7803EBC2035B68A2
:102A100003B11847704700BFCC05002127F06CBFF9
:102A200027F050BE08B527F04DFEBDE80840002055
:102A300027F05CBF08B527F037FE002027F054FFD1
:102A4000BDE80840012027F051BF08B527F02CFE53
:102A5000BDE80840002027F047BF08B527F024FE56
:102A6000BDE80840012027F03FBF000073B5134CBC
:102A7000134D144E27F016FE224629460120124B14
:102A8000009625F0BFFD2246294602200F4B0096F6
:102A900025F0B8FD0E4B2246009300210D4B03207C
:102AA00025F0B0FD01200C4925F0BAFD902200214F
:102AB0000A4802B0BDE870402CF0A9B8052A000110
:102AC000F1290001212A00015B2A00014B2A0001A3
:102AD000252A0001352A00011D2A0001CC0500210C
:102AE000034B43F8301003EBC0035A60704700BF3C
:102AF000CC050021F0B504468C46D3E9000116460A
:102B00001D46177885B0002C36D0CFB14FEA112E74
:102B10000EF0C00EBEF1400F12D1BCF1000F04D078
:102B200000F00AFD204605B0F0BD00F07BFC044635
:102B300008B10124F6E71F4AD38B0133D383F1E7B1
:102B400002460B46384600F07BFD0238C0B2012831
:102B5000EFD80DF10F0300933078D5E9002300F092
:102B600013FC18B19DF80F30002BDBD1114A022461
:102B7000138B01331383D5E727B10B0A03F0C0038E
:102B8000402BD6D002460B46384600F059FD02389D
:102B90000128CED80DF10F0300933078D5E900233A
:102BA00000F0F2FB0028E1D09DF80F30002BC0D1DF
:102BB000DCE700BF5C0600212DE9F041884617469E
:102BC0001E46044658B152EA06030E4D0AD100F0E3
:102BD00055FF012806D10446EB880133EB802046DF
:102BE000BDE8F0813A463346404600F0C5FE20B9C4
:102BF000AB8802240133AB80F1E7EB880133EB8033
:102C0000EDE700BF5C06002137B5DDE9065410B9D9
:102C1000002003B030BDCAB1230A03F0C003402B2B
:102C200014D129B1284621460AAB08AA00F0D8FCE5
:102C3000DDE90A232846CDE9002321469DF820201E
:102C400000F02EFC003818BF0120E2E79DF82000BC
:102C5000DDE90A2300F005FD0238C0B20128D7D80B
:102C6000024A0220538B01335383D2E75C060021D2
:102C70002DE9F04F90F800800D8808F00F0845FA14
:102C800008F515F0010581460F4692461C466E4E2A
:102C900087B006D1338801333380284607B0BDE8BA
:102CA000F08F4FF4C07B72884BFA08FB01321BF0A7
:102CB000010B4378728001D00125EEE703F03F035A
:102CC000637484F8108010F8025B26F049F9C5F3AC
:102CD0008015E574A574C4E90201C4E900017868AF
:102CE000514604F1080304F11302C0F38010FFF70A
:102CF00001FF0128054602D0022839D05D46D4E9FB
:102D00000223D7F804C094F813E01CF0040B0ED093
:102D1000D7E90410834208BF8A4203D1CCF3C00C28
:102D2000E64527D04FF0020B30890130308178889A
:102D3000714640FA08F000F00100FFF73DFF5845EA
:102D400023D2D7F804C01CF0040F1CD0D7E9041319
:102D5000A068E2689A4208BF884204D1E37CCCF3C1
:102D6000C00C63450CD0338901333381012D1AD156
:102D7000002592E770894FF0010B01307081D6E792
:102D800073890133738101250DE07888E17C40FA75
:102D900008F000F00100D4E90223FFF70DFF01283D
:102DA000F1D90228E2D04FF0010BB8F1050F2575DB
:102DB00084F815B080D80BFA08F818F02A0F3FF401
:102DC0007BAF484610F8085B26F0CAF8D4E9022326
:102DD0008146CDE904237868E37CED09CDE90091D3
:102DE00088462A4651460293C0F30010FFF70CFFB5
:102DF00001283FF461AF0228BAD07B68DA077FF57B
:102E00005BAFD7E90212424508BF494503D1C3F37E
:102E10004002AA4213D0B2890132B281002DA7D05C
:102E20004FEA182808F0C008B8F14008A0D19B0666
:102E30009ED5338C0133338484F815802DE7F389D4
:102E40000133F38138E700BF5C0600212DE9F04F24
:102E500007461C4608883B7C0E46184110F00100CE
:102E60009046624D87B005D12B8801332B8007B087
:102E7000BDE8F08F6B8801336B80D7E90023C4E98C
:102E80000223C4E90023BB7C04F11302E374A3749E
:102E9000486804F108034146C0F38010FFF72AFE9A
:102EA0000128814603D002283DD04FF00009D4E923
:102EB0000223D6F804C094F813E01CF0040A0ED0E4
:102EC000D6E90410834208BF8A4203D1CCF3C00084
:102ED00086452AD04FF0020A28890130288170885F
:102EE00097F810C0714640FA0CF000F00100FFF7AF
:102EF00063FE504525D2D6F804C01CF0040F1DD047
:102F0000D6E90413A068E2689A4208BF884204D157
:102F1000E37CCCF3C00C63450DD02B8901332B81AE
:102F2000B9F1010F1BD10020A1E768894FF0010A18
:102F300001306881D3E76B8901336B814FF0010960
:102F40000DE03B7C7088E17C184100F00100D4E981
:102F50000223FFF731FE0128F0D90228E0D04FF01C
:102F6000010A84F8149084F815A07B7C990701D499
:102F700001207CE797F81390D4E90223D7E902B740
:102F80007068CDE90423E37C4A464146CDE900B7A9
:102F90000293C0F30010FFF737FE01283FF467AF3C
:102FA0000228C0D07368DA07E2D5D6E90212BA4225
:102FB00008BF594503D1C3F340024A4511D0AA893D
:102FC0000132AA81B9F1000FADD03F0A07F0C00766
:102FD000403FA8D19B06A6D52B8C01332B84677567
:102FE000C6E7EB890133EB81C2E700BF5C06002135
:102FF000054B03F1240253F8041B934240F8041BD1
:10300000F9D11B88038070475C060021002330B58E
:103010000A4C0B4D23700B4C23708B070EBF0B46D5
:1030200021F0030304332B6003EB00135B1A93427C
:1030300096BF2070002098B230BD00BF82060021EC
:103040008406002183060021F0B500240D499DF877
:1030500014C00D780C490968A54201D80020F0BDC4
:103060000E7A864208D1D1E900769E4208BF974287
:1030700002D14E7A664502D001341031ECE70120CE
:10308000EDE700BF8206002184060021014B18787D
:10309000704700BF830600210022014B1A70704761
:1030A0008206002130B50B490B4D09782C78A142DE
:1030B0000DD90A49096801EB041108720120C1E920
:1030C00000239DF80C3001344B722C7030BD002071
:1030D000FCE700BF83060021820600218406002150
:1030E0002DE9F0411B4C8446276800253C46DFF85B
:1030F00068E09DF818809EF80010EEB2B14201D849
:10310000002021E0267A664520D1D4E900069E42BF
:1031100008BF90421AD1667A464517D1012901F1BC
:10312000FF300ED985420CD001F18051013907EBF7
:1031300001110B7A2372D1E90023C4E900234B7AF1
:1031400063728EF800000120BDE8F0810135103473
:10315000D3E700BF8406002182060021F0B50C49A8
:1031600043EA00430D780B490C680021C8B2854240
:1031700001D800200AE02046D0E908769E4208BF28
:10318000974201F1010104F14804EFD1F0BD00BF05
:103190008C0600219006002130B585B00C4605460E
:1031A0001022002168462BF032FD6A46230A284689
:1031B0008DF800401146240C8DF801308DF8024046
:1031C00027F08EFC9DF802309DF801001B0443EAB5
:1031D00000239DF80000184305B030BD13B504214D
:1031E00004460DEB010027F063FD01992046C1F371
:1031F000150141F480010191FFF7CEFF019940EAEA
:103200000160090A02B010BD002330B50A4C0B4D15
:1032100023700B4C23708B070EBF0B4621F003036A
:1032200004332B60482505FB00335B1A934296BF9D
:103230002070002098B230BD8C060021900600213D
:103240008D060021014B1860704700BF88060021E1
:10325000014B1878704700BF8D0600210022014BFA
:103260001A7070478C060021F8B507461D46FFF717
:1032700075FF1646044680B92E4A2F4913780978FF
:10328000994201D80020F8BD48202C490C6800FB69
:10329000034401331370002CF4D0224645EA07455D
:1032A000069BC4E9086503F1100153F8040B8B4237
:1032B00042F8040BF9D1012304F10F0284F84030E5
:1032C000631E13F8011F71B3002384F8403004F12A
:1032D00010000246079B03F1100153F8045B8B4278
:1032E00042F8045BF9D1012384F84130034604F12C
:1032F000200213F8011BC9B1002384F841300023D8
:103300000022C4E90A23C4E90C23C4E90E230023E4
:10331000A4F8423094F841301BB9FFF75FFFC4E9CD
:103320000C010120AFE79A42CBD1D0E79A42E0D11D
:10333000E5E700BF8C0600218D06002190060021E4
:1033400038B5FFF70BFF78B1084D2C78012C08D960
:10335000482202FB04F30649483B096819442BF054
:103360002FFC0120013C2C7038BD00BF8C060021D1
:103370009006002108B5FFF7F1FE20B19DF8083056
:1033800080F84330012008BD08B5FFF7E7FE20B103
:1033900090F843200120029B1A7008BD10B5029CD2
:1033A000FFF7DCFE40B1D0E90A2352EA030116BF61
:1033B00001200020C4E9002310BD10B5029CFFF7D6
:1033C000CDFE40B1D0E90C2352EA030116BF012023
:1033D0000020C4E9002310BD08B5FFF7BFFE28B1E7
:1033E000029BD3E90023C0E90C23012008BD10B5DE
:1033F000FFF7B4FE044698B190F8403083B990F8D6
:10340000423033B9FFF7EAFE0123C4E90A0184F828
:103410004230029BD4E90A01C3E90001012010BD3A
:103420000020FCE7F7B50026194C94F800C0194CB1
:1034300025683446F7B2BC4510D80CB3164C246846
:10344000F4B1164E758C01357584D3E90067CDE96A
:10345000006713780122A047002411E095F840701E
:1034600097B9D5E90A748C4208BF87420BD1012471
:10347000E98C01F001011170296AAA8CC3E90012DC
:10348000204603B0F0BD012401364835D2E700BF25
:103490008C06002190060021880600215C06002190
:1034A0002DE9F347DDE90A679146804632463B46FF
:1034B00048460D46FFF752FEE8B190F84140D4B9B6
:1034C000D0E90E23AB4208BF424516D00C4BD3F8CF
:1034D00000A0BAF1000F0AD00A4A4046938C294650
:1034E000013393844B462246CDE90067D0472046FE
:1034F00002B0BDE8F0870024F9E70124F7E700BF38
:10350000880600215C06002138B505461046DDE935
:1035100004230C46FFF722FE50B190F8413043B926
:10352000D0E90E23A34208BFAA420CBF012000200D
:1035300038BD0020FCE700002DE9F74F0E46054698
:103540001F464FF000084FF0480B010E41EA0621DC
:10355000DFF880A0009221F07F411F4B5FFA88F4D2
:103560001B78A34205D81D4A0020138A0133138219
:1035700029E0DAF800300BFB043494F84090B9F1FC
:10358000000F23D1D4E90A23B34208BFAA4210D0C6
:1035900020460191FFF700FE25F07F438342019909
:1035A00014D10E4AC4E90A56538A84F84290013372
:1035B00053820120E38C009A03F001031370226A06
:1035C000A38CC7E9002303B0BDE8F08F08F1010820
:1035D000C3E700BF900600218C0600215C06002195
:1035E00070B50E461146D3E9002305460878FFF76B
:1035F000B5FD0446E0B190F84130CBB9D0E90E23D7
:10360000B34208BFAA4211D0290E41EA062121F097
:103610007F411030FFF7C0FD25F07F43834207D183
:10362000064AC4E90E56D38A0133D382012004E04E
:103630000020024A938A0133938270BD5C06002108
:1036400008B5FFF78BFD48B1D0E90A23134306D133
:1036500090F84030002B14BF0120022008BD032049
:10366000FCE708B5FFF77AFD48B1D0E90C23134316
:1036700006D190F84130002B14BF0120022008BD74
:103680000320FCE72DE9F04100254FF04808124ED9
:10369000124F3378ECB2A34201D8BDE8F0813B6809
:1036A00008FB043494F841302BB904F11000FFF703
:1036B00095FDC4E90C0194F840303BB994F84230D0
:1036C00023B12046FFF78AFDC4E90A01012384F8EB
:1036D00044301D44DDE700BF8C0600219006002128
:1036E00008B5FFF73BFD034620B1002290F84400E7
:1036F00083F8442008BD08B5FFF730FD003818BF37
:10370000012008BD1FB5002301A8CDE901330393B3
:1037100027F066F805B05DF804FB000038B50C46EC
:103720000E4D0F4BAB670F4BEB678368C5F88030CE
:103730008360D1F890300846C5F8843026F0C4FF85
:1037400005F1780027F044F8FFF7DCFFB4F89C108F
:10375000D4F89800BDE8384027F092B8CC05002195
:103760000138000169370001F8B5044624F00CFF68
:10377000856A14F0FB0F2146D5F8943020D1984784
:10378000F8B127F0ADF81B4B1B4E1B689F7827F054
:103790006DFBD5F890303844C6F880002846C6F84E
:1037A000843026F091FF06F1780027F011F8FFF73A
:1037B000A9FFB5F89C10D5F8980027F061F802E051
:1037C000984724F0F7FE032C0C4B06D0042C08D0AD
:1037D0005CB91A6801321A60F8BD9A6801329A60C1
:1037E000FAE75A6801325A60F6E71A6901321A613B
:1037F000F2E700BFA8430021CC0500219406002178
:10380000F7B5054624F0C0FE1C4E0746846A25BB6A
:1038100027F066F829463846D4F89030984700B328
:10382000174DB4F89A20D5F8803020461344C5F8D7
:10383000803026F049FF05F1780026F0C9FFFFF738
:1038400061FFB4F898300121ADF80030D4F894301D
:103850006846019326F0CCFF06E02946D4F8903064
:10386000984724F0A7FE25B9F3680133F36003B04D
:10387000F0BD336901333361F9E700BF94060021DD
:10388000CC05002137B50C460F4D104BAB67104BE4
:10389000EB678368C5F880308360084626F014FF24
:1038A00005F1780026F094FFFFF72CFFB4F898306C
:1038B0000121ADF80030D4F894306846019326F029
:1038C00097FF03B030BD00BFCC05002101380001D7
:1038D0006937000108B527F005F8BDE8084024F075
:1038E00069BE000010B5094C002022460849FFF7C8
:1038F000F7F8224601200749FFF7F2F8BDE810402B
:103900001C22002104482BF082B900BFD5380001E9
:10391000853800011D3700019406002130B50446AA
:10392000034D0FCD0FC495E8070084E8070030BDB4
:1039300094060021002330B50B4C0C4D23700C4C29
:103940002B7023708B070CBF0B4621F00303094D2E
:1039500018BF04332B6003EBC0035B1A934296BF7E
:103960002070002098B230BDB1060021B0060021C1
:10397000B2060021B406002130B50B4943EA0043EA
:103980000A480968047801EBC404A14201D100206F
:1039900030BDD1E90050984208BF954201F10801BD
:1039A000F3D10120F4E700BFB4060021B1060021E5
:1039B000014B1878704700BFB20600210023024A6D
:1039C0001370024A13707047B1060021B00600213F
:1039D00070B5064615461C46FFF7CEFF80B9094B69
:1039E000094A197812788A420BD9084A44EA0644EF
:1039F000126802EBC10042F8315001314460197085
:103A0000012070BDB1060021B2060021B4060021DC
:103A100043EA00431148F0B50468DFF844C0254686
:103A20009CF8001004EBC10E754501D1002014E094
:103A30002846D0E900769E4208BF974205F1080566
:103A4000F2D1012905D904EBC10454E90223C0E9EC
:103A50000023012001398CF80010F0BDB4060021CC
:103A6000B10600210122014B1A707047B0060021F7
:103A70000022014B1A707047B0060021014B1878E4
:103A8000704700BFB006002137B5044623F0DAFACC
:103A90000022144B9C42144B0CBFDA701A7194F83C
:103AA000423003F0FD03012B01D123F0DBFA204665
:103AB0000BF08AFE04F1280528460DF1070125F0D8
:103AC0008BFB40B9303420460DF1070125F084FB13
:103AD00020B903B030BD25F067FBEDE725F064FBAE
:103AE000F1E700BFB00D0021B83F0021154A38B5FD
:103AF000154C164B106851681D6804F13C0303C354
:103B000004F1480029790BF087FF012024F0C6FC5E
:103B100023F090FA01230E4DEB7094F8423003F03D
:103B2000FD03012B01D123F095FA0BF06FFE00206D
:103B30000123687184F8C031A4F8BE31BDE8384073
:103B400023F023BA84400021B00D0021AC0D0021E8
:103B5000B83F0021054BDB7833B10123044880F8DE
:103B600099309C3025F0A6B8704700BFB83F0021BF
:103B7000B00D0021002023F008BA0C2023F005BA74
:103B800008B5012024F0A0FCBDE808400148FFF77B
:103B90007BBF00BFB00D002108B5012024F094FCCC
:103BA0000348FFF771FFBDE80840002023F0EDB99E
:103BB000B00D0021FFF7E4BF034B044A19684B68BE
:103BC00013608B6853607047AC0D00218440002166
:103BD00008B5084B08481B68197990F888308B4263
:103BE00002D048300BF018FFBDE80840002023F059
:103BF000CCB900BFAC0D0021B00D002110B50446BA
:103C0000012024F061FCA37B03F0FD03012B01D113
:103C100023F028FAD4F8C80220B125F0C5FA002311
:103C2000C4F8C832D4F8D00220B125F0BDFA002380
:103C3000C4F8D032034AD378013BD370BDE81040BA
:103C400023F000BAB83F002138B505460F4C0120DB
:103C500024F03AFC2C1B0E48EB68241144430BB1B2
:103C6000A0B298470434E0B224F04EFA95F85832E6
:103C70000BB123F007FA23F0E5F9D5F8440208B1B7
:103C800025F092FA00232B7038BD00BFC818002120
:103C9000D1581F1A38B50C4605460E220021204681
:103CA0002AF0B5FF204695F8C03200F8023BD5E96E
:103CB000B22325F05BF995F8C132084A637095F894
:103CC00008332372D5F84C31A3FB0232DB0F43EAF1
:103CD0004203638195F85031237338BDE3361A00EF
:103CE00038B50446012024F0D9FBA37B03F0FD0383
:103CF000012B01D123F0AEF9002320466370A3709D
:103D0000A4F8083284F83C300CF0C2F9054620B91A
:103D100020460CF0D3FA054640B1284623F088FA35
:103D20002046BDE8384003210CF0AABC074AD378EE
:103D30000133D37023F07EF90123284684F86830DC
:103D4000A4F86630BDE8384023F072BAB83F0021CD
:103D5000002023F06DBA000030B4027C0121022A59
:103D600018BF00220C4C8170657895420AD190F8FA
:103D7000082222B900F5037030BC24F09BBF00F587
:103D80004A70F9E701FA02F2217821EA0202227070
:103D9000032130BC0CF074BC780F0021002023F00C
:103DA00047BA000010B5094C6378012B04D9BDE86F
:103DB00010400C2023F03CBA04F1600025F0E1FB38
:103DC00004F17000BDE8104025F0DBBB800F00213E
:103DD000034B5B7813B10C2023F02ABA704700BF65
:103DE000800F0021024B587800B10C2023F020BA3C
:103DF000800F002108B5FFF701FF044B5B7823B16A
:103E0000BDE80840002023F013BA08BD800F002150
:103E100038B51E4B01201C6824F040FB23790BB100
:103E200023F028F923791A4D2B72D4E90223C5E92E
:103E30000423E379AB72A3796B72637D2B760CF06C
:103E400063FFD8B12862237980F85832A37980F8CB
:103E50005932E37980F85A32D4E90223C0E9982331
:103E60000A22238AA0F85032638A5343C0F854329E
:103E70000B23437263798371237DC371286A0CF02D
:103E8000CFFCBDE8384023F0D5B800BF6C2B002133
:103E9000302B0021034B5A78012A04BF00225A70AC
:103EA000704700BF302B0021084B186A90F843225E
:103EB0000AB9012202715B78012B03D1C3702C3047
:103EC00024F0F8BE05210CF0F5BB00BF302B00211B
:103ED00030B50F4C85B06378012B07D10025206ADF
:103EE000C37005712C3024F0E5FE65706946206AC8
:103EF000FFF7D0FE216A074B6A46C91A064B091123
:103F000059433E2089B223F0C9F905B030BD00BF46
:103F1000302B0021C8180021D1581F1A30B52D4C64
:103F200085B06378206A012B04BF00236370FFF71C
:103F30008BFE256A2B7973B10E22002168462AF088
:103F400066FE25496A46691A244D091169434420D1
:103F500089B223F0A3F9256A95F84332ABB1217AEF
:103F600011F0010113D10E2268462AF050FE1A49C1
:103F70006A46691A194D091169431A2089B223F05A
:103F80008DF90022236A83F8432205B030BD182042
:103F900025F002F901460028F3D040F20B134380CC
:103FA000D4E90423C0E90223A37AC371637A83713D
:103FB000237A0371236A9A794271B3F85022D3F8B5
:103FC000543202824382237E4375054B187B25F0D1
:103FD000F4F8D6E7302B0021C8180021D1581F1A59
:103FE000F83F00212DE9F0433D4B85B01D680CF0F2
:103FF0008BFE0446002870D0012024F04FFA0021E7
:1040000084F8581295F82030364F84F8593295F8D4
:104010002130354E84F85A32D5E90A23C4E9982371
:1040200095F82330384684F808334FF47A73C4F88F
:1040300054320C233461A4F850126372A91D16F097
:10404000DDFE40F2E242BB885343C4F84C3195F8A0
:10405000203084F8C03295F8213084F8C132DB0773
:10406000D5E90A01C4E9B2011CD50B0A03F0C0036B
:10407000403B17D14FF000084FF000098DF8073092
:104080000DF1070202ABCDE90289FFF755FA48B1FD
:104090009DF8073043F0020384F8C132DDE90223C2
:1040A000C4E9B22330690CF0BBFB22F0C3FFAB883C
:1040B000288BB3806B8B7080F380AB8B33812B8E1E
:1040C000738195F822303373EB8BF3810CF09CFCF9
:1040D00005B0BDE8F04305F067BC05B0BDE8F0836E
:1040E0006C2B0021702B0021582B00217047000001
:1040F000012310B5054C2069C3702C3024F0DAFD83
:1041000021693E20BDE810400CF04EBE582B002126
:10411000034B186901232C3000F8293C24F0CABD58
:10412000582B0021044B1869C378012B04BF0023CE
:10413000C370FFF789BD00BF582B00211FB5437A1C
:1041400004460B2B0ED16946FFF7A4FD0A496A46C7
:10415000611A0A4C09116143002089B223F09EF8CC
:1041600004B010BD0C2BFBD10146002004B0BDE80B
:1041700010400CF019BE00BFC8180021D1581F1AFA
:1041800001232C3000F82A3C24F094BDFFF75CBDDD
:10419000012310B5044683702C3024F08BFD04F508
:1041A0002C7025F0EEF90548201A054C00116043EB
:1041B000BDE8104080B223F098B800BFC8180021B5
:1041C000D1581F1AF8B50579C38815B1012D18D03B
:1041D000F8BD4FF4447253430E490688CC18B4F826
:1041E00080214088921B8242F2DCD4E95E6703F5AD
:1041F0001E73C4E99E67C81822F07CFF84F87051D2
:10420000E6E74FF44472034802FB0303002283F8FD
:10421000D821DDE7C818002108B522F013FF0022DD
:10422000054B5A70054B93F821301BB1BDE808408F
:1042300022F018BF08BD00BFB83F0021C0400021D8
:1042400008B5012024F02AF922F0F4FE0122074BE0
:104250005A70074B93F821300BB122F0FBFE0CF0A3
:10426000B1FEBDE80840002022F080BEB83F00212A
:10427000C040002108B5012024F010F922F0DAFE38
:104280000122064B5A70064B93F821300BB122F0F5
:10429000E1FEBDE808400CF095BE00BFB83F00212C
:1042A000C0400021054B5B7833B10123044880F8FE
:1042B00029302C3024F0FEBC704700BFB83F0021ED
:1042C000B82B0021002022F051BE0C2022F04EBE5F
:1042D0002DE9F0415B4B8AB05B78002B00F0AF809A
:1042E000594C94F82860002E00F08480D4F8EC80BB
:1042F000B8F1000F79D0012204F5847304F1D001E4
:104300004046FEF7B5FC0646602024F045FF054612
:10431000002800F0908000F10807384608F10201FB
:1043200016F035FF384616F089FF00B196B92846D9
:1043300024F03AFF042024F02FFF014630B14FF45F
:1043400041734380414B187B24F037FF012024F058
:10435000BBF84AE00023AB70D4F84831AB6394F863
:104360001B3185F83C3094F81A219A4207D1D4E9E0
:104370004461D4E94202914208BF864203D043F02F
:10438000020385F83C300020D4E944230021C5E92C
:104390001223C5E9140194F81B0194F81A118842FC
:1043A00007D1D4E94470D4E94261884208BFB742DA
:1043B00003D0D4E94201C5E9140195F83C0013F09B
:1043C000C1F90028B3D1224B2946D3E91C23C5E902
:1043D000162394F82A3085F8410085F83D300123F2
:1043E000EB871A4B187B24F0E8FE0AB0BDE8F041D9
:1043F000FFF712BF164C0CF01DFF257C012DA5D137
:104400003146242201A82AF002FC43F60543ADF808
:1044100006303C238DF80830A37C0DF10E008DF89A
:104420000D30D4E906238DF80C5024F09FFD01A82F
:1044300022F094FD8AE7002E3FF47CAFD5E70AB066
:10444000BDE8F081B83F0021B82B0021F83F0021E2
:10445000C040002108B5012024F036F8FFF7DCFE4B
:104460000CF0E8FEBDE80840002022F07FBD08B552
:10447000012024F029F8FFF7CFFEBDE808400CF03A
:10448000D9BE0000054B30B51C68054D08340FCC73
:104490000FC594E80F0085E80F0030BDAC0D00217A
:1044A000C840002110B50446012024F00DF8074B48
:1044B0001868201A064CC01060430430C0B223F0C4
:1044C00069FDBDE8104022F0BDBD00BF782D002180
:1044D000FBE14BC710B50446D0F8280928B10438D1
:1044E00024F062FE0023C4F82839D4F8FC0728B170
:1044F000043824F059FE0023C4F8FC3794F83B300C
:104500000BB122F0AFFD024A9378013B937010BDCE
:10451000B83F002138B504461F4D012023F0BEFFEF
:104520002A682046137A84F8BC32002384F8BD320E
:1045300084F8BE3284F8343784F836375168C4F8CA
:10454000C0320DF0F7FF014640B1607822F0DCFE8A
:104550002046BDE8384004210DF0A8BE0F4A9378EC
:104560000133937094F83B300BB122F073FD2B684C
:10457000596851B14FF47A72636A0A39B3FBF2F3A6
:1045800004F52B70C91A24F0F6FF60780021BDE80D
:10459000384022F0B9BE00BF7C2D0021B83F002179
:1045A00038B504461C4D012023F078FF2A682046C8
:1045B000137A84F8BC32002384F8BD3284F8BE320A
:1045C00084F8343784F836375168C4F8C0320DF0B7
:1045D000B1FF014640B1607822F096FE2046BDE86A
:1045E000384004210DF062BE2B685B6893B14FF434
:1045F0007A71626A4B4302F59C520832B3FBF2F3C4
:10460000013B534304F52B70B3FBF1F1BDE8384097
:1046100024F0B1BF38BD00BF7C2D002170B5134D13
:1046200000F52B760446304624F0ABFF2B685B6820
:104630007BB14FF47A71626A4B4302F59C520832A7
:10464000B3FBF2F3013B53433046B3FBF1F124F0EB
:1046500092FF00212B6860781B7A84F8BD1284F8E1
:10466000BC32BDE8704022F04FBE00BF7C2D00215F
:1046700010B5044600F52B7024F083FF002384F866
:10468000BE32012384F8363710BD0021407822F075
:104690003BBE0C21407822F037BE0000F0B590F808
:1046A000343704469DB0002B34D100F52B7024F034
:1046B00068FF2046FFF70EFF012023F005FF94F866
:1046C000BC2294F8BD3222B1934224BF432284F825
:1046D000BE22002294F8BE12607822F066FC238C81
:1046E00003F01D031D2B13D1002000213C230022C9
:1046F000CDE90401CDE90632CDE90201D4E90C018E
:1047000094F83A30CDE900010121607801F0FAFB1C
:104710001DB0F0BDD0F8FC67784F002E77D000F6C2
:10472000180300F5FC6101223046FEF7A1FA0028CB
:1047300000F0D080602024F02FFD0546002800F016
:10474000C9806378314603800023837010A816F077
:10475000F5FC311805F1080016F019FDD4F8FC3706
:10476000002B00F0828094F82BC804F5026185F8D4
:104770003CC094F82A38634508D151E90203D4F8C3
:1047800020684A689A4208BF864203D04CF0020C67
:1047900085F83CC0D1E90023C5E91223002200239B
:1047A000C5E9142394F82B2894F82A389A4208D1A2
:1047B00051E90203D4F820684A689A4208BF864249
:1047C00003D051E90223C5E91423012385F83E30C3
:1047D000D4F83037387BAB63494B2946D3E91C23E7
:1047E000C5E9162394F8353785F83D30012385F85F
:1047F0003F3094F8BD3285F8403094F82C3785F876
:10480000413024F0DAFC2046FFF764FE80E7D0F860
:104810002869002E8ED0314608A816F08FFC31187A
:1048200010A816F0B4FC00230F939DF8203004F577
:10483000FC618DF8383003238DF83930DDE9102321
:10484000CDE90A239DF822300AA88DF83A30DDE937
:104850001223CDE90C239DF8233001228DF83B3043
:1048600004F51663FEF7F2FA61E794F873C904F5EC
:10487000166185F83CC094F87239634508D1D1E9D6
:104880000262D4F860094B689A4208BF864203D09E
:104890004CF0020C85F83CC0D1E90223C5E9122393
:1048A00000220023C5E9142394F8732994F872397F
:1048B0009A4208D1D1E90262D4F860094B689A4261
:1048C00008BF864203D0D1E90023C5E9142394F838
:1048D00095387BE76378311F26F8043C082306F8F7
:1048E000023C032306F8013C387B24F066FC0120DF
:1048F0001DB0BDE8F04023F0E7BD00BFF83F002148
:10490000C040002110B50446FFF7E4FD012023F06C
:10491000DBFD60780021BDE8104022F0F5BC10B549
:104920000446FFF7D7FD012023F0CEFD2046BDE869
:1049300010400CF0E1BD3C2380F8BE32012380F82A
:104940003637704700221346F0B5D0E90076C3F140
:104950002005A3F1200427FA03F106FA05F52943FF
:1049600026FA04F42143C90744BF81180B7203F1EE
:10497000010348BF0132252BE9D180F82D20F0BD7D
:1049800070B504460025012023F088FD84F84E52BE
:104990000AF0FCFDA4F82851254601262B4BC4F84B
:1049A0002401D3E90C23E5E99A23284622F0A2FB4F
:1049B000D4F82431284683EA1343B4F82811A4F824
:1049C000983284F896620CF099FE84F84D022046E5
:1049D0000DF008FF054648B1204603210DF0C2FE48
:1049E00029466078BDE8704022F0C5BCA37884F801
:1049F0002161012B13D194F87D290AB984F82A3159
:104A0000D4F80064B4F8FC5322F05AFA324629462E
:104A100024F0B8FA0123A4F80C0484F87E3994F841
:104A200054325BB1D4F80064B4F8FC5322F048FA75
:104A30003246294624F0A6FAA4F8560260780021EE
:104A400022F099FCBDE8704022F0F4BAB83F002192
:104A50000021407822F08FBC0C21407822F08BBCE2
:104A6000F8B583780446012B11D190F82151012D1E
:104A70000DD1D0F80074B0F8FC6322F021FA3A4668
:104A8000314624F07FFA84F87E59A4F80C040123FF
:104A900084F84E32002304F5967084F8213184F8AE
:104AA0002A31BDE8F84024F005B910B590F820315E
:104AB0000446012B04D1FFF7D3FF2046FFF7F2FC99
:104AC0002046BDE81040FFF7D3BD10B590F8203167
:104AD0000446012B04D1FFF7C3FF2046FFF7E2FC99
:104AE0002046BDE810400CF007BD10B50446FFF7A6
:104AF000D9FC60780021BDE8104022F03CBC0000E9
:104B000090F85030012B12D0094B1B68D3E90223D7
:104B1000C0E9A823C0E91623B0F828310633A0F86D
:104B20006030082380F85230012380F850307047FD
:104B3000742D0021D0F888390BB1407818477047A0
:104B4000D0F88C390BB140781847704768220021A3
:104B50002AF05DB85030FFF7F9BF2A2307B58DF86A
:104B600003008DF804006846ADF800108DF802309F
:104B70008DF8051022F0F2F903B05DF804FB2C2348
:104B800007B5ADF800008DF804006846ADF80230B6
:104B90008DF8051022F0E2F903B05DF804FB08B5CA
:104BA000012023F07BFCBDE8084022F043BA00005E
:104BB0002DE9F04FDFF838810446D8F800608FB057
:104BC00006F1080529460EF08FFE294600252046ED
:104BD0000EF0EAFEAA46B37DAB423ED9002794F818
:104BE000562004F1570305F1010906E0D4F894308A
:104BF0002BBBC4F894B022E00137BA421FD913F896
:104C0000011B4945F8D120460EF026F896F84030B1
:104C1000F18E0293D6E90E23CDE900230A46F16A0C
:104C200083460EF0BFF8D4F89030002BDED1E36855
:104C3000C4F890B06B4384F89C50C4F8983094F852
:104C40005630BB4207D194F834305A1C0E3384F8E6
:104C5000342044F823A04D46BDE7D8F80010204684
:104C600008310EF0C9FD216F04F1600024F083FCCF
:104C70002B23A5782022002106A8ADF81630ADF828
:104C8000145029F0C4FFE36A1A4A0793A38A04F177
:104C900038015BBAADF82030E38A8DF81950ADF8D1
:104CA0002230A3885034ADF8243054F8403CA3FBA4
:104CB0000232DB0F43EA42030022ADF826301346EE
:104CC00051F8040B40B140880EAD5A1C05EB43036C
:104CD00023F80E0CD3B201228C42F1D10AB18DF827
:104CE000283005A822F03AF90FB0BDE8F08F00BFD8
:104CF0008C2D0021E3361A0090F8BA3080F8543039
:104D0000704710B543780446012B8AB018D18178DA
:104D10000020FFF722FF2022002102A829F077FFC0
:104D20002B228DF806204422A37801A8ADF8043088
:104D30008DF807208DF808208DF8093022F00EF943
:104D40000AB010BD082380F8543070473D2380F826
:104D50005430704710B50446012023F0B5FB2046BF
:104D60000EF014FB22F06EF994F85430A07823B1C1
:104D7000BDE810401946FFF702BF0146BDE81040EC
:104D80001846FFF7EABEF8B505460FF0A3FB044648
:104D900048B1284604210FF06BFB21462846BDE8A8
:104DA000F8400FF0FFBA012023F078FB2C6DCCB156
:104DB000012384F82131A378012B13D194F87D29A4
:104DC0000AB984F82A31D4F80074B4F8FC6322F0EC
:104DD00077F83A46314624F0D5F80123A4F80C04BC
:104DE00084F87E39284602210FF058FBBDE8F840D0
:104DF00022F020B9F0B5044685B007200EF002FA83
:104E0000064630B3144B03A91868258C039030462E
:104E100017F04EFC114F0635ADB2D7E90C230095C3
:104E2000304417F058FC0622314620460EF0F1F9C6
:104E300094F8A030A4F8A85043F0010384F8A030FF
:104E4000D7E90C23C4E92C23236D13B1002283F886
:104E5000B82005B0F0BD00BFACFC0201B83F002196
:104E600073B5044603200EF0CDF90646E0B1124BAF
:104E700001A95868258C0190304617F019FC0635B9
:104E8000ADB22A4694F8BA10304417F036FC062228
:104E9000314620460EF0BDF994F8A030A4F8B85081
:104EA00043F0020384F8A0300321204602B0BDE89D
:104EB00070400FF0F3BA00BFACFC020110B504461D
:104EC000C43023F0F7FE2046BDE8104003210FF068
:104ED000E5BA000010B504460B4B1B68C31A0B481B
:104EE000DB1043430C33D8B223F054F820460EF0C5
:104EF0004DFA012023F0E8FA22F0A4F82046BDE89C
:104F000010400FF0A1BA00BF842D002167EBD06FD5
:104F10007FB50622ADF806200022C3880D4DADF8FE
:104F20000430ADF80A30C37F01A88DF80C308DF83D
:104F3000082022F013F82B784BB1074EF0880FF0C1
:104F4000C9FB044618B9304622F008F82C7004B0AA
:104F500070BD00BFC2060021B80600212DE9F04354
:104F60008BB0044615460E462422002101A829F0E4
:104F70004EFE26238DF8023040F2E243B4F8582268
:104F800094F85B1294F85A7202FB01FE02FB07F0E0
:104F900003FB0EFE94F84A9203FB00F8D4F8543257
:104FA000B9F1010F0CBF5B19EB1A73440593236928
:104FB000D4F850020393B4F84632B4F806C0ADF802
:104FC000183094F85C3208BF40198DF81A3094F804
:104FD000643218BF281A8DF81B3094F8653208BF68
:104FE00040448DF81C30237A18BF4044ADF800C00F
:104FF0008DF803600CBF04900490ADF806C08DF8E6
:10500000046002958DF81D708DF81E10ADF82420F7
:105010008BB9B4F83421012B0CBFB4F83431B4F897
:1050200030316846ADF82020ADF8223021F096FFEF
:105030000BB0BDE8F083B4F83021ECE738B5054695
:1050400004200C4624F0A8F8014650B1EB88C47047
:1050500003800F238370034B187BBDE8384024F096
:10506000ACB838BDF83F002138B5054604200C46E1
:1050700024F092F8014650B1AB88C470038001233C
:105080008370034B187BBDE8384024F096B838BDD8
:10509000F83F0021014B9B7CC3777047E02D002136
:1050A000024B1B681B79C377704700BF942D00210A
:1050B0003E23C37770470823C37770472223C37703
:1050C00070470D23C3777047014B5B7CC3777047F4
:1050D000E02D00213D23C3777047000010B5044642
:1050E000407A0FF05FFB4FF470711B4BA2881B6876
:1050F00001FB0233C27C0132C274227A22BB94F8D3
:105100004612032993F8462021D1013A18BF012203
:105110008A1A1A4492F9A8217E2A1AD193F85D03BB
:10512000B8B10E4A58181268032992F9202080F865
:10513000A72108BF83F8AB21D3F88C325B0702D5D7
:10514000012384F83D3210BD94F84712D9E70122BB
:10515000DEE784F83A21F6E7702E0021743F002143
:10516000002210B590F847300446C17F80F84720F0
:1051700033B1222904D1BDE810401121FFF7EEBE62
:1051800000222046FFF7EAFEE37F442B04D11623DA
:105190002046E377FFF7BCFE2046BDE810400FF045
:1051A000A1BD000038B50446808811F04BFF0546CC
:1051B00098B9082023F0F0FF014668B1A388038066
:1051C00041F201734380E388C380E37F0371044BA2
:1051D000187B23F0F2FFA57638BD0123A376FBE709
:1051E000F83F0021F8B5044601218688C08814F0F4
:1051F000BFFA0221E08814F0BBFA607A0FF0D2FA0D
:10520000054604F50B7024F0BCF901236376E37FB7
:105210003E2B0CD100276776EB7C2046013BEB74DC
:105220000FF060FD3A462046E17FFFF797FE144BF2
:105230001B6893F82A20134B1C680023934219D251
:10524000A188B14217D1657EADB9A17E99B1082080
:1052500023F0A2FF014668B1A388038041F20173E5
:105260004380E388C380E37F0371074B187B23F0FF
:10527000A4FFA576F8BD013304F53C74DEE700BF5A
:10528000743F0021982D0021F83F002110B50446FD
:10529000407A0FF087FA6378012B05D163762030CE
:1052A000BDE8104023F006BD10BD70B505460420D2
:1052B0000C46CE7F12F070FC014648B122230370E9
:1052C000637A4370A37AC6708370284612F03AFC62
:1052D00021462846BDE870400FF013BE034B9B7C6F
:1052E000CB77012380F8C932704700BFE02D002141
:1052F00008460521FFF7A2BEFFF7D7BF012380F8BC
:10530000C93270472DE9FF470546487A0C460FF031
:1053100049FAC37C0646002B40F04181837C002B78
:1053200000F01E814179DFF84493DFF84483C1B96E
:1053300040F2E242038A5343D9F80020801ACD4A52
:10534000801008FB00F0CDE90112F2680A300092EB
:10535000C0B21A4622F0CAFD002800F001810123E4
:105360007371607A0FF01EFAB5F86421B5F8661112
:10537000D31DB5F8982340F2E24703FB0212002345
:1053800092B2A4F84820521AD9F80010A4F84A3072
:10539000411AB5F86831891008FB01F15A43008AB7
:1053A0006B690A3107FB02327843C9B222F000FE72
:1053B000B5F8683194F85C225F43AF4BD4F86012C3
:1053C0001B68E0649B8D3B4401FB1233E26C9A4204
:1053D00080F0DD80214606F150000FF06BFBA74BFB
:1053E000C5F87833A64BC5F87C33A64B1B681B88E1
:1053F000A380D5F8A031C4F8E830B5F8DA31A4F8C4
:1054000028320AF0C3F8D5E95C23C4F8E40020464A
:105410000FF0A0FA242012F0BFFB0146002800F094
:1054200095801F230370637A4370A37A837094F886
:105430004632022B03D0032B14BF01230423CB706D
:1054400094F84732022B03D0032B14BF012304230B
:105450000B71B4F84C3228464B7194F84A32B4F8C8
:105460004C22DB03C2F30B029BB213431B128B7162
:10547000B4F84E32CB71B4F84E32C3F303230B723F
:10548000D4F850324B72D4F850321B0A8B72B4F8F5
:10549000523203F00F03CB72D4F854320B73D4F8AA
:1054A00054321B0A4B73B4F8563203F00F038B735C
:1054B000B4F83431CB73B4F834311B0A0B74B4F83C
:1054C00030314B74B4F830311B0A8B7494F85C3271
:1054D000CB74D4F860320B75D4F860321B0A4B756C
:1054E000B4F862328B7594F8643294F8652203F054
:1054F0000F0343EA0213CB7594F85A320B7694F8F3
:105500005B324B76B4F858328B76B4F858321B0ABB
:10551000CB76E36C0B77E36C1B0A4B77B4F84E3019
:105520008B77E36CCB77E36C1B0A81F82030B4F8FF
:105530004E3081F82130B4F8483081F82230B4F888
:1055400048301B0A81F8233012F0FCFA012321466F
:10555000284684F8473004B0BDE8F0470FF0D1BCCE
:105560002046FFF7AEFD042023F016FE014610B9D9
:1055700004B0BDE8F087A388038044F6013343807C
:10558000414B187B04B0BDE8F04723F016BED21B98
:10559000E264B4F848200132A4F8482016E740F24B
:1055A000E24A607A0FF0FEF8B5F86411B5F86621AA
:1055B000CB1DB5F89813B5F8688103FB012189B2BA
:1055C000A4F84810891A01FB08F16B6907460AFB29
:1055D00001380023A4F84A30B4F84A30B7F81090E4
:1055E00001339BB203FB09F9A4F84A30BB6A414678
:1055F0000AFB0939484622F0FFFF0028ECD041465B
:10560000484622F0F9FFB5F868111B4B0AFB01F17F
:105610001B6894F85C229B8DE064D4F860020B4414
:1056200000FB1233E26C9A420ED2BB7873BB396D29
:1056300091B9616906F15000C91A13442161E3640C
:1056400021460FF04CFACAE6521AE264B4F8482038
:105650000132A4F84820E5E70868496890F85C72D0
:10566000D0F8600200FB0733E2E700BF902D002175
:10567000E1830F3E39640101743F0021454E010171
:10568000A14E01016C2E0021F83F0021012B09D110
:105690000023396D0029CCD008684968D0F8100182
:1056A0000344F7E70023C4E7002310B50C4608467F
:1056B00081F84730FFF708FD204610F0CDFE204668
:1056C000BDE810400221FFF7B9BC000070B50546E7
:1056D000487A0C460FF066F8384B0646D3E9043298
:1056E0009A4205D3C37803B3204610F0E9FD1EE0CB
:1056F00001220D21284601F087F9214628460FF0A6
:105700000AFC0023204684F84730FFF7DAFC2146E4
:1057100006F150000FF03EFA204610F09DFE0221E7
:105720002046BDE87040FFF789BC10F015FD20460B
:105730000FF070F9337923B922462946304610F02C
:1057400035FE0023102084F8473012F025FA014678
:1057500070B321230370D4F8E4304370D4F8E430FC
:105760001B0A8370B4F8E630C37094F8E730037115
:10577000E36C4371E36C1B0A8371B4F84E30C37160
:105780006369037263691B0A4372E38A8372236944
:10579000C37223691B0A0373638A4373B4F84830E6
:1057A0008373B4F848301B0AC373284612F0CAF951
:1057B000214628460FF0AFFB0121B1E7E02D002183
:1057C00070B50646487A0C460EF0ECFF05462146B9
:1057D00030460FF0A0FB2046FFF770FC214605F194
:1057E00050000FF0D7F9204610F036FE2046BDE8F5
:1057F00070400221FFF722BC10B50C460FF08BFB66
:10580000204610F029FE2046BDE810400221FFF797
:1058100015BC10B50C460FF07EFB204610F01CFEA8
:1058200044232046E3770221BDE81040FFF706BC81
:1058300040F67C4238B58B8C0546043B9BB29342C4
:105840000C4654D80B7E1F2B51D80B79012B4ED808
:10585000CB88B3F5805F4AD20B89B3F5805F46D21F
:10586000CB68B3F5801F42D20B69B3F5801F3ED2DF
:1058700040F6FB738A8A9A4239D8CA8A9A4236D845
:1058800089784B1E012B01D9042930D1E078431EC1
:10589000012B01D904282AD121F0BAF838B394F8A1
:1058A0002230013B1E2B22D894F82330013B1E2BC3
:1058B0001DD894F82030102B19D894F82130102BD3
:1058C00015D8D4E90A31994211D3227E012A10D980
:1058D000B5F8680140F2E245074B013A1B689B8D21
:1058E00005FB0033E06900FB1233994201D9122015
:1058F00038BD0020FCE700BF743F00211FB5272200
:10590000C388ADF80620ADF80430ADF80A30437A0C
:1059100082888DF80C30837A044601A8ADF80820FF
:105920008DF80D3021F01AFB18B91A21E0881FF00C
:10593000A7FC04B010BD000070B50D4E054600F583
:10594000AA700C4623F01DFE33681979102903D183
:1059500000222046FFF702FB33682846012219790E
:1059600001F052F82046BDE870400FF0BBB900BF0F
:105970006C2E00212DE9F047064600F5AA708946F5
:1059800023F0FFFD092012F007F90446C0B11B4BBC
:10599000D3E90E57BD42B3F8408017D0D6F818A00F
:1059A00022F024FE5044854203D8B56922F01EFE41
:1059B0000544AF420AD201221121304601F024F8F9
:1059C00049463046BDE8F0470FF09BBA20232370CC
:1059D0002B0A6570A3702D0C3B0A277184F8078091
:1059E0003F0C4FEA182821463046E5706371A771D5
:1059F00084F8088012F0A6F8E2E700BFE02D00214D
:105A00002DE9F74F7C4F05463B690C46C1F8E43061
:105A10003B8CA1F84830D0F8A031C1F8E830B0F89C
:105A2000DA31487AA1F828327B69CB64BB694B61D3
:105A3000FB690B610EF0B6FEC378064600F1500913
:105A4000002B39D1BB69C360B4F8583203822046B9
:105A5000D5E95C230EF07EFF214648460FF02AF878
:105A6000304610F0F5FD20460EF0D4FFB4F8483073
:105A7000B5F866219A1AB2F5004F0CDA40F2E2400E
:105A8000B5F82A115B1AB5F868119BB24B43E16C6B
:105A900000FB031323663779DFB9224629463046D7
:105AA000B77010F0E7FEA4F84A700121204603B059
:105AB000BDE8F04FFFF7C2BA2046D5E95C230EF0EF
:105AC00049FF214648460FF00AF8204610F05AFEDA
:105AD000C9E740F2E240B5F86831D5F8301102FB71
